{"abi":[{"type":"function","name":"claimAirdrop","inputs":[{"name":"amount","type":"uint256","internalType":"uint256"},{"name":"hash_","type":"bytes32","internalType":"bytes32"},{"name":"signature","type":"bytes","internalType":"bytes"}],"outputs":[],"stateMutability":"nonpayable"},{"type":"function","name":"hacked","inputs":[],"outputs":[{"name":"","type":"bool","internalType":"bool"}],"stateMutability":"view"},{"type":"error","name":"ECDSAInvalidSignature","inputs":[]},{"type":"error","name":"ECDSAInvalidSignatureLength","inputs":[{"name":"length","type":"uint256","internalType":"uint256"}]},{"type":"error","name":"ECDSAInvalidSignatureS","inputs":[{"name":"s","type":"bytes32","internalType":"bytes32"}]}],"bytecode":{"object":"0x608060405260008054610100600160a81b03191674b1700c08aa433b319def2b4bb31d6de5c8512d9600179055348015603757600080fd5b506104e8806100476000396000f3fe608060405234801561001057600080fd5b50600436106100365760003560e01c806305a50c6c1461003b578063f589572814610050575b600080fd5b61004e6100493660046103a9565b610071565b005b60005461005d9060ff1681565b604051901515815260200160405180910390f35b61007b8282610166565b6100be5760405162461bcd60e51b815260206004820152600f60248201526e5245434f5645525f4641494c55524560881b60448201526064015b60405180910390fd5b6001816040516100ce919061046d565b9081526040519081900360200190205460ff16156101275760405162461bcd60e51b815260206004820152601660248201527514d251d3905515549157d053149150511657d554d15160521b60448201526064016100b5565b60018082604051610138919061046d565b908152604051908190036020019020805491151560ff19928316179055600080549091166001179055505050565b60006101728383610190565b60005461010090046001600160a01b03908116911614905092915050565b6000806000806101a086866101ba565b9250925092506101b08282610207565b5090949350505050565b600080600083516041036101f45760208401516040850151606086015160001a6101e6888285856102c4565b955095509550505050610200565b50508151600091506002905b9250925092565b600082600381111561021b5761021b61049c565b03610224575050565b60018260038111156102385761023861049c565b036102565760405163f645eedf60e01b815260040160405180910390fd5b600282600381111561026a5761026a61049c565b0361028b5760405163fce698f760e01b8152600481018290526024016100b5565b600382600381111561029f5761029f61049c565b036102c0576040516335e2f38360e21b8152600481018290526024016100b5565b5050565b600080807f7fffffffffffffffffffffffffffffff5d576e7357a4501ddfe92f46681b20a08411156102ff5750600091506003905082610389565b604080516000808252602082018084528a905260ff891692820192909252606081018790526080810186905260019060a0016020604051602081039080840390855afa158015610353573d6000803e3d6000fd5b5050604051601f1901519150506001600160a01b03811661037f57506000925060019150829050610389565b9250600091508190505b9450945094915050565b634e487b7160e01b600052604160045260246000fd5b6000806000606084860312156103be57600080fd5b8335925060208401359150604084013567ffffffffffffffff808211156103e457600080fd5b818601915086601f8301126103f857600080fd5b81358181111561040a5761040a610393565b604051601f8201601f19908116603f0116810190838211818310171561043257610432610393565b8160405282815289602084870101111561044b57600080fd5b8260208601602083013760006020848301015280955050505050509250925092565b6000825160005b8181101561048e5760208186018101518583015201610474565b506000920191825250919050565b634e487b7160e01b600052602160045260246000fdfea264697066735822122007ce11642ff517f10eb19b07a53278747fb42e6b6876a32d747beea8ff91960d64736f6c63430008190033","linkReferences":{}},"methodIdentifiers":{"claimAirdrop(uint256,bytes32,bytes)":"05a50c6c","hacked()":"f5895728"},"id":30}