{"abi":[{"type":"constructor","inputs":[],"stateMutability":"payable"},{"type":"function","name":"allowance","inputs":[{"name":"","type":"address","internalType":"address"}],"outputs":[{"name":"","type":"uint256","internalType":"uint256"}],"stateMutability":"view"},{"type":"function","name":"claimAirdrop","inputs":[{"name":"user","type":"address","internalType":"address"},{"name":"amount","type":"uint256","internalType":"uint256"},{"name":"v","type":"uint8","internalType":"uint8"},{"name":"r","type":"bytes32","internalType":"bytes32"},{"name":"s","type":"bytes32","internalType":"bytes32"}],"outputs":[],"stateMutability":"nonpayable"}],"bytecode":{"object":"0x6080604052600080546001600160a01b031916735cd705f118ad9357ac8330f48ada7a60f3efc2001790556103e0806100396000396000f3fe608060405234801561001057600080fd5b50600436106100365760003560e01c80633e5beab91461003b578063433d55891461006d575b600080fd5b61005b6100493660046102f7565b60026020526000908152604090205481565b60405190815260200160405180910390f35b61008061007b366004610319565b610082565b005b604080516001600160a01b03871660208083019190915281830187905282518083038401815260608301845280519082012060f887901b6001600160f81b03191660808401526081830186905260a180840186905284518085039091018152600060c185015260e1840180865282905260ff8816610101850152610121840187905261014184018690529351909392600192610161808301939192601f198301929081900390910190855afa15801561013f573d6000803e3d6000fd5b5050604051601f1901516000546001600160a01b0390811691161490506101a65760405162461bcd60e51b81526020600482015260166024820152751cda59db985d1d5c99481b9bdd081858d8d95c1d195960521b60448201526064015b60405180910390fd5b6001816040516101b6919061036f565b9081526040519081900360200190205460ff161561020f5760405162461bcd60e51b81526020600482015260166024820152751cda59db985d1d5c9948185b1c9958591e481d5cd95960521b604482015260640161019d565b60018082604051610220919061036f565b908152604051908190036020018120805492151560ff19909316929092179091556000906001600160a01b0389169088908381818185875af1925050503d8060008114610289576040519150601f19603f3d011682016040523d82523d6000602084013e61028e565b606091505b50509050806102d15760405162461bcd60e51b815260206004820152600f60248201526e1d1c985b9cd9995c8819985a5b1959608a1b604482015260640161019d565b5050505050505050565b80356001600160a01b03811681146102f257600080fd5b919050565b60006020828403121561030957600080fd5b610312826102db565b9392505050565b600080600080600060a0868803121561033157600080fd5b61033a866102db565b945060208601359350604086013560ff8116811461035757600080fd5b94979396509394606081013594506080013592915050565b6000825160005b818110156103905760208186018101518583015201610376565b8181111561039f576000828501525b50919091019291505056fea2646970667358221220f222ff96bf6b373a7cff8b63d2ff51220230e3d4f9dd1f88b2d707ee20848a9b64736f6c634300080f0033","linkReferences":{}},"methodIdentifiers":{"allowance(address)":"3e5beab9","claimAirdrop(address,uint256,uint8,bytes32,bytes32)":"433d5589"},"id":23}