{"abi":[{"type":"function","name":"challenge","inputs":[{"name":"message","type":"string","internalType":"string"},{"name":"signature","type":"bytes","internalType":"bytes"}],"outputs":[],"stateMutability":"nonpayable"},{"type":"function","name":"used","inputs":[{"name":"","type":"bytes","internalType":"bytes"}],"outputs":[{"name":"","type":"bool","internalType":"bool"}],"stateMutability":"view"},{"type":"function","name":"verifyingAddress","inputs":[],"outputs":[{"name":"","type":"address","internalType":"address"}],"stateMutability":"view"},{"type":"error","name":"ECDSAInvalidSignature","inputs":[]},{"type":"error","name":"ECDSAInvalidSignatureLength","inputs":[{"name":"length","type":"uint256","internalType":"uint256"}]},{"type":"error","name":"ECDSAInvalidSignatureS","inputs":[{"name":"s","type":"bytes32","internalType":"bytes32"}]}],"bytecode":{"object":"0x6080604052600080546001600160a01b031916700ccc7439f4972897ccd70994123e0921bc179055348015603257600080fd5b50610640806100426000396000f3fe608060405234801561001057600080fd5b50600436106100415760003560e01c806304989798146100465780634125fcce1461005b5780635f35c0921461008b575b600080fd5b610059610054366004610482565b6100c9565b005b60005461006e906001600160a01b031681565b6040516001600160a01b0390911681526020015b60405180910390f35b6100b9610099366004610504565b805160208183018101805160018252928201919093012091525460ff1681565b6040519015158152602001610082565b600061012a85856040516020016100e19291906105b5565b604051602081830303815290604052805190602001207f19457468657265756d205369676e6564204d6573736167653a0a3332000000006000908152601c91909152603c902090565b600054604080516020601f87018190048102820181019092528581529293506001600160a01b039091169161017c91849190879087908190840183828082843760009201919091525061023692505050565b6001600160a01b0316146101cd5760405162461bcd60e51b81526020600482015260136024820152721cda59db985d1d5c99481b9bdd081d985b1a59606a1b60448201526064015b60405180910390fd5b600183836040516101df9291906105e4565b9081526040519081900360200190205460ff16156101fc57600080fd5b600180848460405161020f9291906105e4565b908152604051908190036020019020805491151560ff199092169190911790555050505050565b6000806000806102468686610260565b92509250925061025682826102ad565b5090949350505050565b6000806000835160410361029a5760208401516040850151606086015160001a61028c8882858561036a565b9550955095505050506102a6565b50508151600091506002905b9250925092565b60008260038111156102c1576102c16105f4565b036102ca575050565b60018260038111156102de576102de6105f4565b036102fc5760405163f645eedf60e01b815260040160405180910390fd5b6002826003811115610310576103106105f4565b036103315760405163fce698f760e01b8152600481018290526024016101c4565b6003826003811115610345576103456105f4565b03610366576040516335e2f38360e21b8152600481018290526024016101c4565b5050565b600080807f7fffffffffffffffffffffffffffffff5d576e7357a4501ddfe92f46681b20a08411156103a5575060009150600390508261042f565b604080516000808252602082018084528a905260ff891692820192909252606081018790526080810186905260019060a0016020604051602081039080840390855afa1580156103f9573d6000803e3d6000fd5b5050604051601f1901519150506001600160a01b0381166104255750600092506001915082905061042f565b9250600091508190505b9450945094915050565b60008083601f84011261044b57600080fd5b50813567ffffffffffffffff81111561046357600080fd5b60208301915083602082850101111561047b57600080fd5b9250929050565b6000806000806040858703121561049857600080fd5b843567ffffffffffffffff808211156104b057600080fd5b6104bc88838901610439565b909650945060208701359150808211156104d557600080fd5b506104e287828801610439565b95989497509550505050565b634e487b7160e01b600052604160045260246000fd5b60006020828403121561051657600080fd5b813567ffffffffffffffff8082111561052e57600080fd5b818401915084601f83011261054257600080fd5b813581811115610554576105546104ee565b604051601f8201601f19908116603f0116810190838211818310171561057c5761057c6104ee565b8160405282815287602084870101111561059557600080fd5b826020860160208301376000928101602001929092525095945050505050565b60208152816020820152818360408301376000818301604090810191909152601f909201601f19160101919050565b8183823760009101908152919050565b634e487b7160e01b600052602160045260246000fdfea264697066735822122097f026b4244cd3ca97c43db3d86c300564a3bf212b620da333a21326f75f4cf964736f6c63430008190033","linkReferences":{}},"methodIdentifiers":{"challenge(string,bytes)":"04989798","used(bytes)":"5f35c092","verifyingAddress()":"4125fcce"},"id":30}