{"abi":[{"type":"constructor","inputs":[{"name":"_token0","type":"address","internalType":"contract ERC20Permit"},{"name":"_token1","type":"address","internalType":"contract ERC20Permit"}],"stateMutability":"nonpayable"},{"type":"function","name":"DOMAIN_SEPARATOR","inputs":[],"outputs":[{"name":"","type":"bytes32","internalType":"bytes32"}],"stateMutability":"view"},{"type":"function","name":"eip712Domain","inputs":[],"outputs":[{"name":"fields","type":"bytes1","internalType":"bytes1"},{"name":"name","type":"string","internalType":"string"},{"name":"version","type":"string","internalType":"string"},{"name":"chainId","type":"uint256","internalType":"uint256"},{"name":"verifyingContract","type":"address","internalType":"address"},{"name":"salt","type":"bytes32","internalType":"bytes32"},{"name":"extensions","type":"uint256[]","internalType":"uint256[]"}],"stateMutability":"view"},{"type":"function","name":"isValidOrder","inputs":[{"name":"_signedOrder","type":"tuple","internalType":"struct SignedOrder","components":[{"name":"order","type":"tuple","internalType":"struct Order","components":[{"name":"owner","type":"address","internalType":"address"},{"name":"tokenOut","type":"address","internalType":"address"},{"name":"tokenIn","type":"address","internalType":"address"},{"name":"amountOut","type":"uint256","internalType":"uint256"},{"name":"amountIn","type":"uint256","internalType":"uint256"},{"name":"nonce","type":"uint256","internalType":"uint256"},{"name":"deadline","type":"uint256","internalType":"uint256"}]},{"name":"v","type":"uint8","internalType":"uint8"},{"name":"r","type":"bytes32","internalType":"bytes32"},{"name":"s","type":"bytes32","internalType":"bytes32"}]}],"outputs":[{"name":"","type":"bool","internalType":"bool"}],"stateMutability":"nonpayable"},{"type":"function","name":"isValidOrderPair","inputs":[{"name":"orderA","type":"tuple","internalType":"struct Order","components":[{"name":"owner","type":"address","internalType":"address"},{"name":"tokenOut","type":"address","internalType":"address"},{"name":"tokenIn","type":"address","internalType":"address"},{"name":"amountOut","type":"uint256","internalType":"uint256"},{"name":"amountIn","type":"uint256","internalType":"uint256"},{"name":"nonce","type":"uint256","internalType":"uint256"},{"name":"deadline","type":"uint256","internalType":"uint256"}]},{"name":"orderB","type":"tuple","internalType":"struct Order","components":[{"name":"owner","type":"address","internalType":"address"},{"name":"tokenOut","type":"address","internalType":"address"},{"name":"tokenIn","type":"address","internalType":"address"},{"name":"amountOut","type":"uint256","internalType":"uint256"},{"name":"amountIn","type":"uint256","internalType":"uint256"},{"name":"nonce","type":"uint256","internalType":"uint256"},{"name":"deadline","type":"uint256","internalType":"uint256"}]}],"outputs":[{"name":"","type":"bool","internalType":"bool"}],"stateMutability":"pure"},{"type":"function","name":"nonces","inputs":[{"name":"owner","type":"address","internalType":"address"}],"outputs":[{"name":"","type":"uint256","internalType":"uint256"}],"stateMutability":"view"},{"type":"function","name":"swap","inputs":[{"name":"swapOfferA","type":"tuple","internalType":"struct SwapOffer","components":[{"name":"signedOrder","type":"tuple","internalType":"struct SignedOrder","components":[{"name":"order","type":"tuple","internalType":"struct Order","components":[{"name":"owner","type":"address","internalType":"address"},{"name":"tokenOut","type":"address","internalType":"address"},{"name":"tokenIn","type":"address","internalType":"address"},{"name":"amountOut","type":"uint256","internalType":"uint256"},{"name":"amountIn","type":"uint256","internalType":"uint256"},{"name":"nonce","type":"uint256","internalType":"uint256"},{"name":"deadline","type":"uint256","internalType":"uint256"}]},{"name":"v","type":"uint8","internalType":"uint8"},{"name":"r","type":"bytes32","internalType":"bytes32"},{"name":"s","type":"bytes32","internalType":"bytes32"}]},{"name":"signedPermit","type":"tuple","internalType":"struct SignedPermit","components":[{"name":"permit","type":"tuple","internalType":"struct Permit","components":[{"name":"owner","type":"address","internalType":"address"},{"name":"spender","type":"address","internalType":"address"},{"name":"value","type":"uint256","internalType":"uint256"},{"name":"nonce","type":"uint256","internalType":"uint256"},{"name":"deadline","type":"uint256","internalType":"uint256"}]},{"name":"v","type":"uint8","internalType":"uint8"},{"name":"r","type":"bytes32","internalType":"bytes32"},{"name":"s","type":"bytes32","internalType":"bytes32"}]}]},{"name":"swapOfferB","type":"tuple","internalType":"struct SwapOffer","components":[{"name":"signedOrder","type":"tuple","internalType":"struct SignedOrder","components":[{"name":"order","type":"tuple","internalType":"struct Order","components":[{"name":"owner","type":"address","internalType":"address"},{"name":"tokenOut","type":"address","internalType":"address"},{"name":"tokenIn","type":"address","internalType":"address"},{"name":"amountOut","type":"uint256","internalType":"uint256"},{"name":"amountIn","type":"uint256","internalType":"uint256"},{"name":"nonce","type":"uint256","internalType":"uint256"},{"name":"deadline","type":"uint256","internalType":"uint256"}]},{"name":"v","type":"uint8","internalType":"uint8"},{"name":"r","type":"bytes32","internalType":"bytes32"},{"name":"s","type":"bytes32","internalType":"bytes32"}]},{"name":"signedPermit","type":"tuple","internalType":"struct SignedPermit","components":[{"name":"permit","type":"tuple","internalType":"struct Permit","components":[{"name":"owner","type":"address","internalType":"address"},{"name":"spender","type":"address","internalType":"address"},{"name":"value","type":"uint256","internalType":"uint256"},{"name":"nonce","type":"uint256","internalType":"uint256"},{"name":"deadline","type":"uint256","internalType":"uint256"}]},{"name":"v","type":"uint8","internalType":"uint8"},{"name":"r","type":"bytes32","internalType":"bytes32"},{"name":"s","type":"bytes32","internalType":"bytes32"}]}]}],"outputs":[],"stateMutability":"nonpayable"},{"type":"function","name":"token0","inputs":[],"outputs":[{"name":"","type":"address","internalType":"contract ERC20Permit"}],"stateMutability":"view"},{"type":"function","name":"token1","inputs":[],"outputs":[{"name":"","type":"address","internalType":"contract ERC20Permit"}],"stateMutability":"view"},{"type":"event","name":"EIP712DomainChanged","inputs":[],"anonymous":false},{"type":"error","name":"ECDSAInvalidSignature","inputs":[]},{"type":"error","name":"ECDSAInvalidSignatureLength","inputs":[{"name":"length","type":"uint256","internalType":"uint256"}]},{"type":"error","name":"ECDSAInvalidSignatureS","inputs":[{"name":"s","type":"bytes32","internalType":"bytes32"}]},{"type":"error","name":"InvalidAccountNonce","inputs":[{"name":"account","type":"address","internalType":"address"},{"name":"currentNonce","type":"uint256","internalType":"uint256"}]},{"type":"error","name":"InvalidOrder","inputs":[{"name":"owner","type":"address","internalType":"address"},{"name":"nonce","type":"uint256","internalType":"uint256"}]},{"type":"error","name":"InvalidPair","inputs":[{"name":"orderAOwner","type":"address","internalType":"address"},{"name":"orderBOwner","type":"address","internalType":"address"},{"name":"nonceA","type":"uint256","internalType":"uint256"},{"name":"nonceB","type":"uint256","internalType":"uint256"}]},{"type":"error","name":"InvalidShortString","inputs":[]},{"type":"error","name":"StringTooLong","inputs":[{"name":"str","type":"string","internalType":"string"}]}],"bytecode":{"object":"0x6101a0604052348015610010575f80fd5b506040516115e93803806115e983398101604081905261002f916101c8565b604080518082018252600f81526e4761736c65737345786368616e676560881b602080830191909152825180840190935260018352603160f81b9083015290610078825f610135565b61012052610087816001610135565b61014052815160208084019190912060e052815190820120610100524660a05261011360e05161010051604080517f8b73c3c69bb8fe3d512ecc4cf759cc79239f7b179b0ffacaa9a75d522b39400f60208201529081019290925260608201524660808201523060a08201525f9060c00160405160208183030381529060405280519060200120905090565b60805250503060c0526001600160a01b039182166101605216610180526103a8565b5f6020835110156101505761014983610167565b9050610161565b8161015b8482610291565b5060ff90505b92915050565b5f80829050601f8151111561019a578260405163305a27a960e01b81526004016101919190610350565b60405180910390fd5b80516101a582610385565b179392505050565b80516001600160a01b03811681146101c3575f80fd5b919050565b5f80604083850312156101d9575f80fd5b6101e2836101ad565b91506101f0602084016101ad565b90509250929050565b634e487b7160e01b5f52604160045260245ffd5b600181811c9082168061022157607f821691505b60208210810361023f57634e487b7160e01b5f52602260045260245ffd5b50919050565b601f82111561028c57805f5260205f20601f840160051c8101602085101561026a5750805b601f840160051c820191505b81811015610289575f8155600101610276565b50505b505050565b81516001600160401b038111156102aa576102aa6101f9565b6102be816102b8845461020d565b84610245565b602080601f8311600181146102f1575f84156102da5750858301515b5f19600386901b1c1916600185901b178555610348565b5f85815260208120601f198616915b8281101561031f57888601518255948401946001909101908401610300565b508582101561033c57878501515f19600388901b60f8161c191681555b505060018460011b0185555b505050505050565b602081525f82518060208401528060208501604085015e5f604082850101526040601f19601f83011684010191505092915050565b8051602080830151919081101561023f575f1960209190910360031b1b16919050565b60805160a05160c05160e05161010051610120516101405161016051610180516111c16104285f395f818161014c01528181610208015261029101525f8181608e015281816101c7015261025001525f61094801525f61091c01525f6108c501525f61089d01525f6107f801525f61082201525f61084c01526111c15ff3fe608060405234801561000f575f80fd5b5060043610610085575f3560e01c806384b0196e1161005857806384b0196e14610119578063b0a397b414610134578063d21220a714610147578063de79a9db1461016e575f80fd5b80630dfe16811461008957806314218456146100cd5780633644e515146100f05780637ecebe0014610106575b5f80fd5b6100b07f000000000000000000000000000000000000000000000000000000000000000081565b6040516001600160a01b0390911681526020015b60405180910390f35b6100e06100db366004610e92565b610183565b60405190151581526020016100c4565b6100f86102e7565b6040519081526020016100c4565b6100f8610114366004610ead565b6102f5565b610121610314565b6040516100c49796959493929190610ef4565b6100e0610142366004610f8b565b610356565b6100b07f000000000000000000000000000000000000000000000000000000000000000081565b61018161017c366004611094565b6103aa565b005b805160c08101515f919042111561019c57505f92915050565b80604001516001600160a01b031681602001516001600160a01b0316036101c557505f92915050565b7f00000000000000000000000000000000000000000000000000000000000000006001600160a01b031681602001516001600160a01b03161415801561024157507f00000000000000000000000000000000000000000000000000000000000000006001600160a01b031681602001516001600160a01b031614155b1561024e57505f92915050565b7f00000000000000000000000000000000000000000000000000000000000000006001600160a01b031681604001516001600160a01b0316141580156102ca57507f00000000000000000000000000000000000000000000000000000000000000006001600160a01b031681604001516001600160a01b031614155b156102d757505f92915050565b6102e0836106fa565b9392505050565b5f6102f06107ec565b905090565b6001600160a01b0381165f908152600260205260408120545b92915050565b5f6060805f805f6060610325610915565b61032d610941565b604080515f80825260208201909252600f60f81b9b939a50919850469750309650945092509050565b5f81604001516001600160a01b031683602001516001600160a01b0316148015610399575081602001516001600160a01b031683604001516001600160a01b0316145b80156102e057506102e0838361096e565b81516020808401518351918401519091906103c484610183565b610401578351805160a09091015160405163f8b4853560e01b81526001600160a01b03909216600483015260248201526044015b60405180910390fd5b61040a82610183565b610442578151805160a09091015160405163f8b4853560e01b81526001600160a01b03909216600483015260248201526044016103f8565b835182516104509190610356565b6104a557835180518351805160a0938401519390910151604051631b17e6e560e21b81526001600160a01b039384166004820152929091166024830152604482019290925260648101919091526084016103f8565b835160209081015183518201518551805181850151604080840151608090940151968a0151818b015160608c0151925163d505accf60e01b8152979896976001600160a01b038a169763d505accf976105089796959094919391926004016110c0565b5f604051808303815f87803b15801561051f575f80fd5b505af1158015610531573d5f803e3d5ffd5b505084518051602080830151604080850151608090950151928a0151818b015160608c0151925163d505accf60e01b81526001600160a01b038b16995063d505accf985061058597949593906004016110c0565b5f604051808303815f87803b15801561059c575f80fd5b505af11580156105ae573d5f803e3d5ffd5b505050505f80855f015160600151885f015160600151116105db57875160608101516080909101516105e9565b855160808101516060909101515b8951518851516040516323b872dd60e01b81526001600160a01b0392831660048201529082166024820152604481018490529294509092508516906323b872dd906064016020604051808303815f875af1158015610649573d5f803e3d5ffd5b505050506040513d601f19601f8201168201806040525081019061066d9190611101565b508551518851516040516323b872dd60e01b81526001600160a01b039283166004820152908216602482015260448101839052908416906323b872dd906064016020604051808303815f875af11580156106c9573d5f803e3d5ffd5b505050506040513d601f19601f820116820180604052508101906106ed9190611101565b5050505050505050505050565b805180516020808301516040808501516060808701516080978801516001600160a01b039788165f818152600289528681208054600181019091558c5160c09081015189517f492cd77ee7aa153916cb4f5a705fb2d74de17b5cce58d57df15ad6fd08a80503818e0152808b0195909552998c1696840196909652958a169a82019a909a5260a08101929092529181019190915260e0810191909152610100808201939093528151808203909301835261012001905280519101208351519091166107db6107c7836109f6565b856020015186604001518760600151610a22565b6001600160a01b0316149392505050565b5f306001600160a01b037f00000000000000000000000000000000000000000000000000000000000000001614801561084457507f000000000000000000000000000000000000000000000000000000000000000046145b1561086e57507f000000000000000000000000000000000000000000000000000000000000000090565b6102f0604080517f8b73c3c69bb8fe3d512ecc4cf759cc79239f7b179b0ffacaa9a75d522b39400f60208201527f0000000000000000000000000000000000000000000000000000000000000000918101919091527f000000000000000000000000000000000000000000000000000000000000000060608201524660808201523060a08201525f9060c00160405160208183030381529060405280519060200120905090565b60606102f07f00000000000000000000000000000000000000000000000000000000000000005f610a4e565b60606102f07f00000000000000000000000000000000000000000000000000000000000000006001610a4e565b5f82608001518360600151036109865750600161030e565b8260800151836060015111156109c657816060015182608001516109aa9190611120565b836080015184606001516109be9190611120565b14905061030e565b816080015182606001516109da9190611120565b836060015184608001516109ee9190611120565b149392505050565b5f61030e610a026107ec565b8360405161190160f01b8152600281019290925260228201526042902090565b5f805f80610a3288888888610af7565b925092509250610a428282610bbf565b50909695505050505050565b606060ff8314610a6857610a6183610c7b565b905061030e565b818054610a749061113f565b80601f0160208091040260200160405190810160405280929190818152602001828054610aa09061113f565b8015610aeb5780601f10610ac257610100808354040283529160200191610aeb565b820191905f5260205f20905b815481529060010190602001808311610ace57829003601f168201915b5050505050905061030e565b5f80807f7fffffffffffffffffffffffffffffff5d576e7357a4501ddfe92f46681b20a0841115610b3057505f91506003905082610bb5565b604080515f808252602082018084528a905260ff891692820192909252606081018790526080810186905260019060a0016020604051602081039080840390855afa158015610b81573d5f803e3d5ffd5b5050604051601f1901519150506001600160a01b038116610bac57505f925060019150829050610bb5565b92505f91508190505b9450945094915050565b5f826003811115610bd257610bd2611177565b03610bdb575050565b6001826003811115610bef57610bef611177565b03610c0d5760405163f645eedf60e01b815260040160405180910390fd5b6002826003811115610c2157610c21611177565b03610c425760405163fce698f760e01b8152600481018290526024016103f8565b6003826003811115610c5657610c56611177565b03610c77576040516335e2f38360e21b8152600481018290526024016103f8565b5050565b60605f610c8783610cb8565b6040805160208082528183019092529192505f91906020820181803683375050509182525060208101929092525090565b5f60ff8216601f81111561030e57604051632cd44ac360e21b815260040160405180910390fd5b6040516080810167ffffffffffffffff81118282101715610d0e57634e487b7160e01b5f52604160045260245ffd5b60405290565b6040805190810167ffffffffffffffff81118282101715610d0e57634e487b7160e01b5f52604160045260245ffd5b60405160a0810167ffffffffffffffff81118282101715610d0e57634e487b7160e01b5f52604160045260245ffd5b80356001600160a01b0381168114610d88575f80fd5b919050565b5f60e08284031215610d9d575f80fd5b60405160e0810181811067ffffffffffffffff82111715610dcc57634e487b7160e01b5f52604160045260245ffd5b604052905080610ddb83610d72565b8152610de960208401610d72565b6020820152610dfa60408401610d72565b6040820152606083013560608201526080830135608082015260a083013560a082015260c083013560c08201525092915050565b803560ff81168114610d88575f80fd5b5f6101408284031215610e4f575f80fd5b610e57610cdf565b9050610e638383610d8d565b8152610e7160e08301610e2e565b60208201526101008201356040820152610120820135606082015292915050565b5f6101408284031215610ea3575f80fd5b6102e08383610e3e565b5f60208284031215610ebd575f80fd5b6102e082610d72565b5f81518084528060208401602086015e5f602082860101526020601f19601f83011685010191505092915050565b60ff60f81b881681525f602060e06020840152610f1460e084018a610ec6565b8381036040850152610f26818a610ec6565b606085018990526001600160a01b038816608086015260a0850187905284810360c0860152855180825260208088019350909101905f5b81811015610f7957835183529284019291840191600101610f5d565b50909c9b505050505050505050505050565b5f806101c08385031215610f9d575f80fd5b610fa78484610d8d565b9150610fb68460e08501610d8d565b90509250929050565b5f818303610240811215610fd1575f80fd5b610fd9610d14565b9150610fe58484610e3e565b825261013f1901610100811215610ffa575f80fd5b611002610cdf565b60a082121561100f575f80fd5b611017610d43565b91506110266101408501610d72565b82526110356101608501610d72565b602083015261018084013560408301526101a084013560608301526101c0840135608083015281815261106b6101e08501610e2e565b602082015261020084013560408201526102208401356060820152806020840152505092915050565b5f8061048083850312156110a6575f80fd5b6110b08484610fbf565b9150610fb6846102408501610fbf565b6001600160a01b0397881681529590961660208601526040850193909352606084019190915260ff16608083015260a082015260c081019190915260e00190565b5f60208284031215611111575f80fd5b815180151581146102e0575f80fd5b5f8261113a57634e487b7160e01b5f52601260045260245ffd5b500490565b600181811c9082168061115357607f821691505b60208210810361117157634e487b7160e01b5f52602260045260245ffd5b50919050565b634e487b7160e01b5f52602160045260245ffdfea264697066735822122076a437432844a7239ecec817df8d78dda868feaf85721c1e07d8c21ecd1dd0ea64736f6c63430008190033","linkReferences":{}},"methodIdentifiers":{"DOMAIN_SEPARATOR()":"3644e515","eip712Domain()":"84b0196e","isValidOrder(((address,address,address,uint256,uint256,uint256,uint256),uint8,bytes32,bytes32))":"14218456","isValidOrderPair((address,address,address,uint256,uint256,uint256,uint256),(address,address,address,uint256,uint256,uint256,uint256))":"b0a397b4","nonces(address)":"7ecebe00","swap((((address,address,address,uint256,uint256,uint256,uint256),uint8,bytes32,bytes32),((address,address,uint256,uint256,uint256),uint8,bytes32,bytes32)),(((address,address,address,uint256,uint256,uint256,uint256),uint8,bytes32,bytes32),((address,address,uint256,uint256,uint256),uint8,bytes32,bytes32)))":"de79a9db","token0()":"0dfe1681","token1()":"d21220a7"},"id":42}